:1000000058C0000046C1000044C1000042C10000C9
:1000100040C100003EC100003CC100003AC10000E8
:1000200038C1000036C1000034C1000032C10000F8
:1000300030C100002EC100002CC100002AC1000008
:1000400028C1000026C1000024C1000022C1000018
:1000500041C100001EC100001CC100001AC1000007
:1000600018C1000016C1000014C1000012C1000038
:1000700010C100000EC100000CC100000AC1000048
:1000800008C1000006C1000004C1000002C1000058
:1000900000C10000FEC00000FCC00000FAC000006B
:1000A000F8C00000F6C00000F4C0000001000174B8
:1000B000800011241FBECFEFDAE0DEBFCDBFECEA37
:1000C000F0E040E017C0B591A591359125910591DB
:1000D00007FD0CC095918591EF01F92FE82F059050
:1000E0000D92A217B307D9F7FE0104C01D92A21703
:1000F000B307E1F7E13BF40731F70AD002C0F89407
:02010000FFCF2F
:0E010200EC014ED04AD0CE0149D0CE0148D0FB
:10011000CF93DF93CDB7DEB7EA970FB6F894DEBF83
:100120000FBECDBFCE0101963DD08AE3FE013196D0
:10013000AAE3B1E001900D928A95E1F7E0914A01BE
:10014000F0914B0181818068818382818068828304
:10015000A0914401B091450196968C919697877F26
:1001600096968C93969740915C0150915D019A010F
:10017000255B3F4FF9018081877EFA0191AD916047
:1001800091AFE65BFF4F10828160F9018083919609
:0C0190008C919197806891968C93FFCF22
:02019C000895C4
:02019E000895C2
:0201A000AEDFD0
:0201A2000895BE
:1001A400E0E0F1E01382128220E530E0358324831D
:1001B40028E730E03783268327E530E0318720873E
:1001C4002EE330E0338722872FE330E0358724871E
:1001D4002BE330E03787268723E230E0318B208B16
:1001E40026E230E0338B228B29E230E0358B248BFE
:1001F4002CE230E0378B268B2FE230E0318F208FDA
:1002040021E530E0338F228F29E430E0358F248FCD
:100214002CE430E0378F268F29E330E031A320A38C
:1002240026E330E033A322A328E330E035A324A35C
:1002340025E330E037A326A328EB30E031A720A73D
:1002440028EC30E033A722A727ED30E035A724A718
:1002540020E630E037A726A72AE431E031AB20AB13
:1002640024E531E033AB22AB21E631E035AB24ABFE
:1002740022E631E037AB26AB26E631E031AF20AFE2
:0E0284002AE3DC0101900D922A95E1F708951E
:02029200B6CEE6
:10029400CF93DF9300D0CDB7DEB70F900F90DF91EF
:0402A400CF91089559
:1002A800CF93DF9300D0CDB7DEB79827892798275B
:0A02B8000F900F90DF91CF91089591
:0202C20008959D
:0802C400282F892F922F0895C5
:0802CC0098278927982708955F
:1002D4008F938FB78F93EF93FF93E0914A01F0913F
:1002E4004B01828180588283FF91EF918F918FBF60
:0402F4008F91189539
:00000001FF
