:100000000C9459000C94D0020C94D0020C94D002A1
:100010000C94D0020C94D0020C94D0020C94D00218
:100020000C94D0020C94D0020C94D0020C94D00208
:100030000C94D0020C94D0020C94D0020C94D002F8
:100040000C94D0020C94D0020C94D0020C94D002E8
:100050000C941F020C94D0020C94D0020C94D00289
:100060000C94D0020C94D0020C94D0020C94D002C8
:100070000C94D0020C94D0020C94D0020C94D002B8
:100080000C94D0020C94D0020C94D0020C94D002A8
:100090000C94D0020C94D0020C94D0020C94D00298
:1000A0000C94D0020C94D0020C94D002010001AC4C
:1000B000800011241FBECFEFDAE0DEBFCDBFECEA37
:1000C000F0E040E017C0B591A591359125910591DB
:1000D00007FD0CC095918591EF01F92FE82F059050
:1000E0000D92A217B307D9F7FE0104C01D92A21703
:1000F000B307E1F7E13BF40731F70E943C010C94B0
:060100008502F894FFCF18
:10010600E0E0F1E01382128220E530E035832483BB
:1001160028E730E03783268327E530E031872087DC
:100126002EE330E03387228725EC30E035872487BD
:100136002FE330E0378726872FEA31E0318B208B9B
:100146002BE330E0338B228B23E230E0358B248B9C
:1001560026E230E0378B268B29E230E0318F208F84
:100166002CE230E0338F228F2FE230E0358F248F60
:1001760021E530E0378F268F29E430E031A320A334
:100186002CE430E033A322A32EEB30E035A324A3E6
:100196002FEC30E037A326A34EE650E051A740A748
:1001A60025E330E033A722A760E870E075A764A7CF
:1001B60066E870E077A766A751AB40AB33AB22ABDE
:1001C60060E970E075AB64AB66E970E077AB66AB8F
:1001D60051AF40AF33AF22AF63E470E075AF64AFA9
:1001E60067E470E077AF66AF5093410140934001FA
:1001F600309343012093420128EB30E030934501D0
:100206002093440128EC30E03093470120934601C7
:1002160027ED30E0309349012093480120E630E095
:1002260030934B0120934A0129E932E030934D0186
:1002360020934C0121EA32E030934F0120934E0186
:1002460024ED32E0309351012093500128EC32E046
:1002560030935301209352012CEC32E03093550138
:100266002093540126E5DC0101900D922A95E1F7D1
:020276000895E9
:10027800CF93DF93CDB7DEB7C655D1090FB6F89443
:10028800DEBF0FBECDBFCE0101960E94830086E57A
:10029800FE013196A6E5B1E001900D928A95E1F74D
:1002A8000E945A0206E511E0D8011A96ED91FC91D8
:1002B8001B9786A1877F86A39C96ED91FC919D97BD
:1002C80080818C7F80839C96ED91FC919D978181A4
:1002D800886081839C96ED91FC919D9781818F7EAA
:1002E8008183D096ED91FC91D19781818360818340
:1002F8009C96ED91FC919D9780818F7380839C964D
:10030800ED91FC919D9780818F7C80839C96ED91E7
:10031800FC919D978081837F80839E96ED90FC90D1
:100328009F97E091A601F091A7018FEF91E00995C1
:10033800F70193838283D8019C96ED91FC919D9758
:100348008181816081831A96ED91FC911B9781A12F
:06035800806881A3FFCFC5
:10035E00FC0180E992E0918380838BE692E09383A7
:10036E00828388E492E09583848381EB92E0978385
:10037E0086838EEB92E09187808788EB92E093875D
:10038E00828789EA92E09787868789EA92E0958B41
:10039E00848B89E792E0978B868B86E392E0918F30
:1003AE00808F84E092E0938F828F82EE91E0958F22
:0603BE00848FCF010895B9
:1003C400CF92DF92EF9221503109C0F06B01E82EF9
:1003D400C20ED31EE11CCA01820F931F422F732F3A
:1003E400F6015E2D0E94C302262F0E94490231E0CD
:1003F400C31AD108E1084150704090F7EF90DF90A4
:04040400CF900895F8
:10040800CF92DF92EF926B01E82ECA01422F732F31
:100418000BC0F6015E2D0E94C302262F0E946C02BB
:100428003FEFC31AD30AE30A4150704090F7EF90A8
:06043800DF90CF90089553
:10043E001F920F920FB60F9211248F93EF93FF938B
:10044E00E0916A01F0916B01828180588283FF9165
:0E045E00EF918F910F900FBE0F901F90189589
:10046C00BA01A901DC01CB01FC01F999FECF06C050
:10047C00F2BDE1BDF89A319600B40D924150504056
:04048C00B8F7089520
:10049000262FF999FECF92BD81BDF89A019700B43D
:1004A000021639F01FBA20BD0FB6F894FA9AF99ADD
:0404B0000FBE0895DE
:1004B400E6E5F1E0A489B58911968C9111978068DD
:1004C40011968C930488F589E02D8281806882835B
:0204D400089589
:1004D600262FF999FECF1FBA92BD81BD20BD0FB65A
:0C04E600F894FA9AF99A0FBE0196089556
:1004F2000396272F0E9449020E944802252F0E943C
:080502004902242F0C94490268
:10050A00EC010E94D6020E94D502CE010E94D702B7
:06051A00CE010E94D20296
:10052000CB01F999FECF92BD81BDF89A992780B58C
:0205300008952C
:10053200292F30E0322F2227A901482BCA01089522
:10054200282F30E0322F2227A901492BCA01089512
:10055200242F0E946C02252F0E946C020C94BE0272
:0E056200CB01A8E1B0E042E050E00C943A0278
:0C0570000196272F0E9449020C944802BB
:0A057C000E946B02272F0C946C0202
:0A05860057FD608157FF649108954E
:08059000282F892F922F0895F6
:08059800982789279827089590
:0405A0000C940000B7
:0405A4000E94810030
:0205A8000895B4
:0205AA000895B2
:0205AC000895B0
:0205AE000895AE
:00000001FF
