:100000000C9456000C948B000C948B000C948B0079
:100010000C948B000C948B000C948B000C948B0034
:100020000C948B000C948B000C948B000C948B0024
:100030000C948B000C948B000C948B000C948B0014
:100040000C948B000C948B000C948B000C948B0004
:100050000C948B000C948B000C948B000C948B00F4
:100060000C948B000C948B000C948B000C948B00E4
:100070000C948B000C948B000C948B000C948B00D4
:100080000C948B000C948B000C948B000C948B00C4
:100090000C948B000C948B000C948B000C948B00B4
:1000A0000C948B000C948B000C948B0011241FBEBD
:1000B000CFEFDAE0DEBFCDBFECEAF0E040E017C002
:1000C000B591A59135912591059107FD0CC09591AC
:1000D0008591EF01F92FE82F05900D92A217B30734
:1000E000D9F7FE0104C01D92A217B307E1F7EC3A5D
:1000F000F40731F70E948F000C948000F894FFCF32
:10010000EC010E9491000E949000CE010E9492009A
:06011000CE010E948D00EB
:040116000C94000045
:04011A000E947E00C1
:02011E00FFCF11
:02012000089540
:0201220008953E
:0201240008953C
:00000001FF
